:100000000C943E000C945B000C945D000C945B001F
:100010000C945B000C945B000C945B000C945B00F4
:100020000C945B000C945B000C945B000C945B00E4
:100030000C945B000C945B000C945B000C945B00D4
:100040000C9467000C945B000C945B000C945B00B8
:100050000C945B000C945B000C945B000C945B00B4
:100060000C945B000C945B000C945B000C945B00A4
:100070000C945B000C945B000C945B0011241FBE7D
:10008000CFEFD0E1DEBFCDBF11E0A0E0B1E0E6E30D
:10009000F2E002C005900D92A030B107D9F721E03F
:1000A000A0E0B1E001C01D92A330B207E1F70E94C9
:1000B00071000C9419010C9400001F920F920FB65E
:1000C0000F9211240F900FBE0F901F9018951F9242
:1000D0000F920FB60F9211240F900FBE0F901F902A
:1000E0001895CF93DF931F92CDB7DEB78FE381B919
:1000F0008FEF87B980EC8AB9E9E6F0E080818C6007
:1001000080838DB382608DBB0E940A01BE016F5F48
:100110007F4F81E00E94C400109202011092010101
:10012000109200012FEF88E09DE321508040904025
:10013000E1F700C000000E94060178948FE097E28A
:100140000197F1F700C0000087E090E40E941401DD
:1001500081E091E40E94140184E00E94B9009FEFC5
:1001600028E08DE3915020408040E1F700C000007E
:10017000EBCF92B121E030E002C0220F331F8A950D
:10018000E2F7292722B90895823071F128F48823F3
:1001900041F0813021F10895833061F1843081F1A3
:1001A0000895FB018081843021F480E888B983E0E0
:1001B0008083FB018081833021F48FE788B982E05E
:1001C0008083FB018081823019F418B881E080833C
:1001D000FB0180818130C9F418B88083089518B874
:1001E00081E0FB01808308958FE788B982E0FB01FD
:1001F0008083089580E888B983E0FB0180830895B7
:100200008FEF88B984E0FB018083089582B181601B
:1002100082B90895E4E6F0E080818B7F808380EBF3
:1002200084B981E58CBD08958EBD0DB407FEFDCF68
:060230000895F894FFCFD1
:00000001FF
