S01000004E495253563030312E73726563F1
S11300000C9466000C9483000C9485000C9483007B
S11300100C9483000C9483000C9483000C94830050
S11300200C9483000C9483000C9483000C94830040
S11300300C9483000C9483000C9483000C94830030
S11300400C94D4000C9483000C9483000C948300CF
S11300500C9483000C9483000C9483000C94830010
S11300600C9483000C9483000C9483000C94830000
S11300700C9483000C9483000C9483000C948300F0
S11300800C9483000C9483000C9483000C948300E0
S11300900C9483000C9483000C9483000C948300D0
S11300A00C9483000C9483000C9483000C948300C0
S11300B00C9483000C9483000C9483000C948300B0
S11300C00C9483000C9483000C94830011241FBEB1
S11300D0CFEFD8E0DEBFCDBF11E0A0E0B1E0E8EFA4
S11300E0F3E002C005900D92A030B107D9F721E0EA
S11300F0A0E0B1E001C01D92A330B207E1F70E9475
S11301000E010C94FA010C9400001F920F920FB68A
S11301100F9211242F933F934F935F936F937F9389
S11301208F939F93AF93BF93CF93EF93FF9389B133
S113013081FBCC27C0F980910201882319F081301A
S113014091F020C00E94A9011092010110920001B7
S1130150C11105C081E00E94AD010E94A50181E0AA
S1130160809302010FC00E94A90110920101109214
S11301700001C13029F482E00E94AD010E94A50172
S113018010920201FF91EF91CF91BF91AF919F9196
S11301908F917F916F915F914F913F912F910F902C
S11301A00FBE0F901F9018951F920F920FB60F92CB
S11301B011242F933F934F935F936F937F938F9368
S11301C09F93AF93BF93EF93FF938091000190911E
S11301D00101889748F010920101109200011092D9
S11301E002010E94A90109C08091000190910101BE
S11301F001969093010180930001FF91EF91BF91CB
S1130200AF919F918F917F916F915F914F913F91AA
S11302102F910F900FBE0F901F901895CF93DF93DF
S11302201F92CDB7DEB78FE381B98FEF87B980EC2A
S11302308AB9E9E6F0E080818C6080838DB38260C6
S11302408DBB0E94C7010E94D6010E94E401BE0139
S11302506F5F7F4F81E00E9463012FE38DE093E0A5
S1130260215080409040E1F700C00000109202014C
S1130270109201011092000189EF90E00197F1F7CB
S113028000C000000E94A901789481E00E94AD01A1
S113029081E090E00E94A50180E090E40E94EC01DE
S11302A081E091E40E94EC014C9BFECF109202018C
S11302B00E94A901F9CF82B1806182B9089582B107
S11302C0806282B90895823071F128F4882341F064
S11302D0813021F10895833061F1843081F10895F2
S11302E0FB018081843021F480E888B983E0808335
S11302F0FB018081833021F48FE788B982E0808319
S1130300FB018081823019F418B881E08083FB01FD
S113031080818130C9F418B88083089518B881E0C9
S1130320FB01808308958FE788B982E0FB01808315
S1130330089580E888B983E0FB01808308958FEFF6
S113034088B984E0FB018083089582B18E7F82B9ED
S1130350089582B1816082B90895813019F08230A4
S113036051F0089582B1897F82B982B1886082B9DF
S11303700E945B01089582B1857F82B982B1846055
S113038082B90E945F0108958093B3000895E4E662
S1130390F0E080818F7B808388E48093B0008AE0E2
S11303A08093B10080E60E94C401089586E087BD71
S11303B084B5826084BD85B5816085BDEEE6F0E0DC
S11303C0808182608083089580EB84B985B18061E7
S11303D085B989E58CBD089595B19F7E95B9EFE403
S11303E0F3EC3197F1F700C000008EBD0DB407FEA9
S10B03F0FDCF0895F894FFCF3E
S9030000FC
