:100000000C9466000C9478000C94B5000C94780065
:100010000C9478000C9478000C9478000C94780080
:100020000C9478000C9478000C9478000C94780070
:100030000C9478000C9478000C9478000C94780060
:100040000C947A000C9478000C9478000C9478004E
:100050000C9478000C9478000C9478000C94780040
:100060000C9478000C9478000C9478000C94780030
:100070000C9478000C9478000C9478000C94780020
:100080000C9478000C9478000C9478000C94780010
:100090000C9478000C9478000C9478000C94780000
:1000A0000C9478000C9478000C9478000C947800F0
:1000B0000C9478000C9478000C9478000C947800E0
:1000C0000C9478000C9478000C94780011241FBED6
:1000D000CFEFD8E0DEBFCDBF21E0A0E0B1E001C0AE
:1000E0001D92A330B207E1F70E9404010C94D901DC
:1000F0000C9400001F920F920FB60F9211242F93B1
:100100003F934F935F936F937F938F939F93AF939F
:10011000BF93EF93FF938091000190910101853F80
:10012000914048F0109201011092000110920201DA
:100130000E949A0109C080910001909101010196ED
:100140009093010180930001FF91EF91BF91AF91D6
:100150009F918F917F916F915F914F913F912F91DF
:100160000F900FBE0F901F9018951F920F920FB611
:100170000F9211242F933F934F935F936F937F932D
:100180008F939F93AF93BF93CF93EF93FF9389B1D7
:1001900081FBCC27C0F980910201882319F08130BE
:1001A00091F020C00E949A0110920101109200016A
:1001B000C11105C081E00E949E010E94960181E06C
:1001C000809302010FC00E949A01109201011092C7
:1001D0000001C13029F482E00E949E010E94960134
:1001E00010920201FF91EF91CF91BF91AF919F913A
:1001F0008F917F916F915F914F913F912F910F90D0
:100200000FBE0F901F901895CF93DF931F92CDB71D
:10021000DEB78FE381B980EE84B98FEF87B980ECC8
:100220008AB90E94CA010E94C1012FE38DE093E0C8
:10023000215080409040E1F700C00000BE016F5F98
:100240007F4F81E00E9454010E94960183EC99E067
:100250000197F1F700C000008BB180688BB99FE374
:100260002DE083E0915020408040E1F700C0000085
:10027000789481E00E949E0187E893E10197F1F76D
:1002800000C0000082E00E949E0187E893E1019790
:10029000F1F700C00000EDCF82B1806182B908950E
:1002A00082B1806282B90895823071F128F4882386
:1002B00041F0813021F10895833061F1843081F182
:1002C0000895FB018081843021F480E888B983E0BF
:1002D0008083FB018081833021F48FE788B982E03D
:1002E0008083FB018081823019F418B881E080831B
:1002F000FB0180818130C9F418B88083089518B853
:1003000081E0FB01808308958FE788B982E0FB01DB
:100310008083089580E888B983E0FB018083089595
:100320008FEF88B984E0FB018083089582B18E7FCE
:1003300082B9089582B1816082B90895823069F0EE
:100340008330A1F08130E1F482B1897F82B982B13A
:10035000886082B90E944C01089582B1857F82B97C
:1003600082B1846082B90E945001089582B18D7F6C
:1003700082B982B18C6082B90E944C010E94500106
:100380000895E0EBF0E0808180648083089580939D
:10039000B3000895E4E6F0E080818F7B808381E400
:1003A0008093B0008AE08093B1008EE30E94C70181
:0603B0000895F894FFCF50
:00000001FF
